:020000040800F2
:100000005006002005010008C11E0008651C0008FC
:10001000BD1E00088D060008E52400080000000051
:10002000000000000000000000000000F11E0008B9
:100030009106000800000000C51E0008F31E00081D
:100040001F0100081F0100081F0100081F01000810
:100050001F0100081F0100081F0100081F01000800
:100060001F0100081F0100081F0100081F010008F0
:100070001F0100081F0100081F0100081F010008E0
:100080001F0100081F0100081F0100081F010008D0
:100090001F0100081F0100081F0100081F010008C0
:1000A0001F0100081F0100081F0100081F010008B0
:1000B0001F0100081F0100081F0100081F010008A0
:1000C0001F0100081F0100081F0100081F01000890
:1000D0001F0100081F0100081F010008D5240008A7
:1000E0001F0100081F0100081F010008DFF810D0E1
:1000F00000F0BAFA00480047092E0008AFF300806C
:10010000500600200648804706480047FEE7FEE705
:10011000FEE7FEE7FEE7FEE7FEE7FEE7FEE7FEE7B7
:10012000611F0008ED000008202A04DB203A21FAB4
:1001300002F00021704721FA02F3D040C2F1200200
:100140009140084319467047D2B201E000F8012BF4
:10015000491EFBD270470022F6E710B513460A4647
:1001600004461946FFF7F0FF204610BD2DE9FE4F6B
:10017000804681EA0300C00F0C46009021F0004148
:1001800023F00045B8EB0200A94105D240462146C4
:1001900090461C460B46024623F00040104347D0D1
:1001A000270DC7F30A00C3F30A510290401A0190C9
:1001B00040286BDAC3F3130040F4801B009892468A
:1001C00020B10023D2EB030A63EB0B0B01985946D5
:1001D000C0F14002504600F0B0F906460D465046C8
:1001E0005946019A00F0B8F910EB0800614100246B
:1001F00087EA115284EAE7731A4340D0009A62B347
:10020000019A012A4FEA075215DC001B61EB02013B
:100210004FF0004202EA0752CDE90042001C41F5CE
:10022000801132462B4600F0B8F903B0BDE8F08FDC
:1002300040462146F9E7001B61EB0201001C41F535
:10024000801300185B412018A2F5001747EB03014B
:1002500040EAD570B6196D4111E06D084FEA3606D7
:1002600045EAC0754FEA0752001B61EB0201001C12
:1002700041F5801149084FEA3000001951413246DA
:100280002B4603B0BDE8F04F00F078B9009801228A
:1002900040000023D0EB020263EBE073009821469C
:1002A0004FEAE074B8EB000061EB0401E9E783F08A
:1002B00000435BE781F0004158E72DE9FE4F81EAFA
:1002C000030404F0004421F0004100944FF0000BBF
:1002D00023F0004350EA01045ED052EA03045BD0ED
:1002E000C3F30A54C1F30A552C44A4F2F334019425
:1002F000A0FB0254C1F3130141F48011C3F31303B3
:1003000043F4801301FB024400FB034E840A970A66
:1003100044EA815447EA8357A4FB076802958D0A93
:1003200005FB07854FEA932C04FB0C542705029D1F
:100330004FEA065847EA1637B5EB08056EEB070C8F
:10034000870E920E47EA811742EA8312A7FB020149
:10035000B6EB0B0164EB00042B0D43EA0C335E1883
:1003600044EB1C50DA465146E7FB0201C5F3130487
:100370004FEA0B3343EA14534FEA0432019C43EA39
:100380000603A4F10C040294009CCDE900B400F033
:1003900004F903B0BDE8F08F00200146F9E72DE92C
:1003A000F04D81EA030404F0004B21F000451446AF
:1003B0004FF0000A23F0004150EA050220D054EA31
:1003C00001021DD0C5F30A570246C5F31303C1F35A
:1003D0001300C1F30A5640F4801543F48013A7EBD1
:1003E0000608101BD64608F2FD3873EB050002D351
:1003F00008F1010801E092185B41B8F1000F03DA3F
:1004000000200146BDE8F08D00204FF48011064623
:1004100084460EE0171B73EB050705D3121B63EB35
:10042000050306434CEA010C49084FEA30009218D4
:100430005B4150EA0107EDD152EA030012D082EA93
:10044000040083EA0501084305D0101BAB4106D226
:100450000122002306E000224FF0004302E06FF08B
:10046000010253101AEB06004CEB085110EB0A0086
:1004700041EB0B01BDE8F04D00F080B830B5041E33
:1004800071F1000404DB4FF00044404264EB0101D1
:10049000141E73F1000405DB1C464FF0004352426A
:1004A00063EB0403994208BF904230BD30B50B4660
:1004B000014600202022012409E021FA02F59D4294
:1004C00005D303FA02F5491B04FA02F52844151E68
:1004D000A2F10102F1DC30BD2DE9F05F05460020FC
:1004E00092469B4688460646814640241BE02846A5
:1004F000414647462246FFF717FE53465A46C01A62
:10050000914110D311461846224600F016F82D1AD4
:1005100067EB01084F4622460120002100F00DF84C
:1005200017EB00094E41201EA4F10104DFDC484610
:1005300031462A464346BDE8F09F202A04DB203A94
:1005400000FA02F1002070479140C2F1200320FA26
:1005500003F3194390407047202A06DBCB17203A5B
:1005600041FA02F043EAE07306E041FA02F3D040B8
:10057000C2F12002914008431946704710B5141E7D
:1005800073F1000408DA401C41F1000192185B414C
:100590001A4301D120F0010010BD2DE9F04D924623
:1005A0009B4611B1B1FA81F202E0B0FA80F220323A
:1005B0009046FFF7C2FF04460F4640EA0A0041EAB0
:1005C0000B0153465A46084313D0114653EA010023
:1005D00019D0C8F140025046FFF7A6FD05460E4669
:1005E000504659464246FFF7A8FF084305D0012070
:1005F00004E020463946BDE8F08D0020054346EA78
:10060000E0762C4337430A986305E40AA0EB080020
:100610000022FD0A44EA47540A3002D50020014670
:10062000E9E7010510196941DDE90845001969414B
:10063000BDE8F04DA2E7C1F30A52C1F3130140F245
:10064000FF3341F480119A4202DA002001467047DC
:1006500040F233439A42A2F2334202DC5242FFF7A5
:1006600063BDFFF76ABF0000064C074D06E0E06877
:1006700040F0010394E8070098471034AC42F6D3E9
:10068000FFF738FDE03000080031000800BFFEE74A
:10069000704772B600BFFEE70146002291F82100C4
:1006A000022808D00420886300BF002081F82000C1
:1006B00000BF012070470868006820F00E000B683A
:1006C00018600868006820F001000B68186091F855
:1006D000403001209840CB6B5860012081F8210008
:1006E00000BF002081F8200000BF1046E2E70000B4
:1006F00070B50446002594F82100022803D0042098
:10070000A063012548E02068006820F00E00216801
:1007100008602068006820F00100216808601F4917
:100720002068884201D1012026E01C49143120684C
:10073000884201D110201FE01849283120688842E2
:1007400001D1801518E015493C312068884201D15B
:10075000801411E0114950312068884202D14FF4D1
:10076000803009E00D4964312068884202D14FF49D
:10077000801001E04FF0807008490839486001207E
:1007800084F8210000BF002084F8200000BF606BC7
:1007900010B12046616B8847284670BD08000240B2
:1007A0002DE9F8470346002294466EE14FF0010818
:1007B00008FA02F4D1F8008008EA0400A0427DD1D2
:1007C000DFF8DCA2D1F80480A8EB0A09D0453AD0C2
:1007D00014DCB8F1030F50D009DCB8F1000F31D0B0
:1007E000B8F1010F1CD0B8F1020F49D120E0B8F1E7
:1007F000110F18D0B8F1120F42D11EE0B9F5881FC1
:1008000025D006DCB9F5803F20D0B9F5801F37D15F
:100810001AE0B9F5001F18D0B9F5041F30D117E060
:10082000D1F80CC02DE0D1F80C8008F1040C28E0C0
:10083000D1F80C8008F1080C23E0D1F80C8008F105
:100840000C0C1EE000BF00BF00BF00BF00BF00BF18
:10085000D1F80880B8F1000F02D14FF0040C0BE082
:10086000D1F80880B8F1010F03D14FF0080C1C61DA
:1008700002E04FF0080C5C6103E04FF0000C00E078
:1008800000BF00BFFF2801D8984601E003F104082B
:100890004646FF2802D84FEA820803E0A2F1080882
:1008A0004FEA88084746D6F800804FF00F0909FA4A
:1008B00007F928EA09080CFA07F900E088E048EA95
:1008C0000908C6F80080D1F8048008F08058B8F113
:1008D000805F7DD100BFDFF8CC81D8F8188048F068
:1008E0000108DFF8C091C9F81880C846D8F8188008
:1008F00008F00108CDF8008000BF00BF4FEAB9380A
:100900004FEA920958F829504FEA82784FEA18794D
:100910004FF00F0808FA09F825EA0805DFF8888182
:10092000434502D14FF0000816E0DFF880814345CF
:1009300002D14FF001080FE0DFF87481434502D186
:100940004FF0020808E0DFF86C81434502D14FF018
:10095000030801E04FF004084FEA82794FEA197961
:1009600008FA09F848EA0505DFF84C814FEA9209D0
:1009700048F82950D1F8048008F48038B8F5803F51
:100980000AD1DFF83881D8F8008048EA0008DFF89B
:100990002C91C9F8008009E0DFF82081D8F80080A8
:1009A00028EA0008DFF81491C9F80080D1F8048023
:1009B00008F40038B8F5003F10D1DFF8008108F1E5
:1009C0000408D8F8008048EA0008DFF8F09000E05A
:1009D0005AE009F10409C9F800800DE0DFF8DC8075
:1009E00008F10408D8F8008028EA0008DFF8CC9065
:1009F00009F10409C9F80080D1F8048008F48018CE
:100A0000B8F5801F0ED1DFF8B48008F10808D8F8D7
:100A1000008048EA0008DFF8A49009F10809C9F845
:100A200000800DE0DFF8948008F10808D8F8008015
:100A300028EA0008DFF8849009F10809C9F8008065
:100A4000D1F8048008F40018B8F5001F0ED1DFF8C3
:100A50006C8008F10C08D8F8008048EA0008DFF83C
:100A60005C9009F10C09C9F800800DE0DFF84C80BA
:100A700008F10C08D8F8008028EA0008DFF83C905C
:100A800009F10C09C9F80080521CD1F8008028FA3D
:100A900002F8B8F1000F7FF489AEBDE8F8870000D6
:100AA000000011100010024000080140000C01403D
:100AB0000010014000140140080001400004014002
:100AC0000AB1016101E00B0403617047014800684D
:100AD000704700000C0100200348006803490978B2
:100AE00008440149086070470C01002014010020EF
:100AF00010B50848006840F010000649086003205F
:100B000000F0A8F8002000F007F800F02BF8002013
:100B100010BD00000020024070B504460E48007869
:100B20004FF47A71B1FBF0F00C490968B1FBF0F5B4
:100B3000284600F00BFC08B1012070BD102C07D234
:100B400000222146501E00F047F80548046001E0ED
:100B50000120F2E70020F0E7140100201801002036
:100B60001001002008B500BF1148806940F0010065
:100B70000F4988610846806900F00100009000BFBD
:100B800000BF00BF0846C06940F08050C8610846F9
:100B9000C06900F08050009000BF00BF00BF054951
:100BA000486820F0E06040F00070486000BF08BD79
:100BB000001002400000014001460846002809DB01
:100BC00000F01F0301229A4043099B0003F1E02338
:100BD000C3F8002100BF70472DE9F05F80460D4645
:100BE0001646002701F090FC074639462A46334650
:100BF00001F00700C0F1070ABAF1040F02D94FF063
:100C0000040A01E0C0F1070AD14600F1040ABAF172
:100C1000070F02D24FF0000A01E0A0F1030AD44608
:100C20004FF0010A0AFA09FAAAF1010A0AEA020ACD
:100C30000AFA0CFA4FF0010B0BFA0CFBABF1010BAB
:100C40000BEA030B4AEA0B042146404601F064FC20
:100C5000BDE8F09F00BF00F00702064B19684FF691
:100C6000FF031940044B0B4343EA0221014B196077
:100C700000BF70470CED00E00000FA0570B50446B7
:100C80000D460CB9012070BD5A48006800F00700FD
:100C9000A8420ED25748006820F007002843554963
:100CA00008600846006800F00700A84201D0012053
:100CB000E9E7207800F0020002281DD1207800F03A
:100CC0000400042805D14C48406840F4E0604A49DB
:100CD0004860207800F00800082805D146484068A0
:100CE00040F46050444948604348406820F0F000B8
:100CF000A168084340494860207800F0010078B3BB
:100D00006068012806D13C48006800F4003090B9C2
:100D10000120B8E76068022806D13748006800F073
:100D2000007040B90120AEE73348006800F00200CF
:100D300008B90120A7E73048406820F00300616847
:100D400008432D494860FFF7C1FE064609E0FFF75A
:100D5000BDFE801B41F28831884202D9032092E710
:100D600007E02548406800F00C006168B0EB810F97
:100D7000EDD12048006800F00700A8420ED91D48B8
:100D8000006820F0070028431A49086008460068F8
:100D900000F00700A84201D0012074E7207800F09D
:100DA0000400042807D11448406820F4E060E1689A
:100DB000084311494860207800F00800082808D14D
:100DC0000D48406820F46050216940EAC1000A499A
:100DD000486000F03FF808494968C1F30311074A29
:100DE000515CC8400649086006480068FFF794FE59
:100DF000002048E70020024000100240C8300008F0
:100E00001801002010010020014800687047000010
:100E10001801002000B5FFF7F7FF04494968C1F346
:100E20000221034A515CC84000BD0000001002408E
:100E3000D830000800B5FFF7E7FF04494968C1F35F
:100E4000C221034A515CC84000BD000000100240AE
:100E5000D8300008F0B585B00FF26C0C9CE8E010BB
:100E600001A8A0E8E0101CA52D6800950021002233
:100E7000002300240020194D696801F00C05F5B12C
:100E8000042D02D0082D19D101E0154819E001AD5B
:100E9000C1F38346AC5D01F4803555B10F4D6D68EB
:100EA000C5F340451DF805200D4D6543B5FBF2F334
:100EB00002E00C4D04FB05F3184602E000BF0848B1
:100EC00000BF00BF05B0F0BD020304050607080916
:100ED0000A0B0C0D0E0F1010010200000010024052
:100EE00000127A0000093D00F8B504460CB9012053
:100EF000F8BD207800F00100002878D0F84840685C
:100F000000F00C0004280CD0F548406800F00C00FC
:100F1000082811D1F248406800F48030B0F5803FD5
:100F20000AD1EF48006800F4003000285FD0606804
:100F300000285CD10120DBE700BF6068B0F5803F8E
:100F400006D1E748006840F48030E549086028E0B1
:100F5000606858B9E248006820F48030E0490860D1
:100F60000846006820F4802008601AE06068B0F548
:100F7000A02F0BD1DA48006840F48020D8490860DF
:100F80000846006840F4803008600AE0D4480068F1
:100F900020F48030D24908600846006820F48020A0
:100FA000086000BF606888B1FFF790FD054606E065
:100FB000FFF78CFD401B642801D9032098E7C8483F
:100FC000006800F400300028F2D010E0FFF77EFD4A
:100FD000054606E0FFF77AFD401B642801D903208F
:100FE00086E7BF48006800F400300028F2D120787E
:100FF00000F00200022857D1B948406800F00C0008
:1010000050B1B748406800F00C00082818D1B44827
:10101000406800F4803098B9B148006800F00200E0
:1010200020B12069012801D0012061E7AC480068A7
:1010300020F0F800616940EAC100A949086033E086
:101040002069E8B10120A7490860FFF73FFD054688
:1010500006E0FFF73BFD401B022801D9032047E7CC
:101060009F48006800F002000028F2D09C48006809
:1010700020F0F800616940EAC1009949086013E076
:10108000002098490860FFF721FD054606E0FFF7BC
:101090001DFD401B022801D9032029E79048006864
:1010A00000F002000028F2D1207800F008000828A3
:1010B0002DD1A069B8B101208B490860FFF706FD6A
:1010C000054606E0FFF702FD401B022801D9032078
:1010D0000EE78348406A00F002000028F2D00120A9
:1010E00000F0F2FE13E000207F490860FFF7EEFCFD
:1010F000054606E0FFF7EAFC401B022801D9032061
:10110000F6E67748406A00F002000028F2D1207825
:1011100000F00400042873D100277148C06900F072
:10112000805070B900BF6E48C06940F080506C4973
:10113000C8610846C06900F08050009000BF00BF41
:1011400001276A48006800F48070B0B967480068F9
:1011500040F4807065490860FFF7B8FC054606E07A
:10116000FFF7B4FC401B642801D90320C0E65F48A8
:10117000006800F480700028F2D000BFE068012809
:1011800006D15748006A40F001005549086227E03F
:10119000E06858B95248006A20F0010050490862DE
:1011A0000846006A20F00400086219E0E06805289B
:1011B0000BD14B48006A40F00400494908620846D8
:1011C000006A40F0010008620AE04548006A20F029
:1011D0000100434908620846006A20F004000862E2
:1011E00000BFE068A0B1FFF771FC054609E0FFF71A
:1011F0006DFC401B41F28831884202D9032077E61A
:1012000022E03748006A00F002000028EFD012E028
:10121000FFF75CFC054608E0FFF758FC401B41F275
:101220008831884201D9032062E62D48006A00F027
:1012300002000028F0D1012F05D12948C06920F013
:1012400080502749C86100BFE069C8B3244840689E
:1012500000F00C00082860D0E069022848D1002086
:1012600020490866FFF732FC054606E0FFF72EFC32
:10127000401B022801D903203AE61948006800F013
:1012800000700028F2D1206AB0F5803F07D11448E1
:10129000406820F40030A168084311494860D4E94F
:1012A000080108430E49496821F4741108430C49A8
:1012B000486001200B490866FFF708FC054607E077
:1012C0003DE0FFF703FC401B022801D903200FE695
:1012D0000348006800F000700028F2D02FE0000002
:1012E0000010024000004242800442420070004070
:1012F000002014490866FFF7E9FB054606E0FFF702
:10130000E5FB401B022801D90320F1E50E480068E7
:1013100000F000700028F2D111E0E069012800D14E
:10132000E6E50948466806F48031206A814204D126
:1013300006F47011606A814201D00120D8E50020D6
:10134000D6E50000000042420010024070B504469D
:101350002546681EB0F1807F01D301200FE0681E92
:101360004FF0E02148610F214FF0FF3001F0D4F839
:1013700000204FF0E021886107200861002070BD47
:1013800030B502460B4600BF92F83C00012801D15F
:10139000022030BD012082F83C0000BF022082F80C
:1013A0003D00106844681068816824F07004186873
:1013B000044310684460104D1068A8420BD01068B8
:1013C000B0F1804F07D00D4D1068A84203D00C4DEE
:1013D0001068A84205D121F08001586801431068C7
:1013E0008160012082F83D0000BF002082F83C00AF
:1013F00000BF00BFCDE70000002C0140000400400A
:101400000008004010B586B004460020029003900A
:10141000049005902068B0F1804F17D100BF254897
:10142000806940F00400234988610846806900F023
:101430000400019000BF00BF0F2002900220039023
:10144000059002A91C48FFF7ABF930E01B49206862
:1014500088422CD100BF1748806940F0040015492C
:1014600088610846806900F00400019000BF00BF59
:1014700000BF0846806940F008008861084680691E
:1014800000F00800019000BF00BFC02002900220C1
:101490000390059002A90848FFF782F90320029003
:1014A00002200390059002A90548FFF779F906B0DC
:1014B00010BD000000100240000801400004004080
:1014C000000C014070B504460D46164600BF94F866
:1014D0003C00012801D1022070BD012084F83C00AD
:1014E00000BF36B1042E1BD0082E31D00C2E5ED199
:1014F00045E02946206800F081FD2068806940F0C1
:101500000800216888612068806920F00400216853
:10151000886120688069296908432168886147E0FB
:101520002946206800F09AFD2068806940F4006038
:10153000216888612068806920F480602168886162
:1015400020688069296940EA0120216888612FE0CC
:101550002946206800F0B6FD2068C06940F0080008
:101560002168C8612068C06920F004002168C86152
:101570002068C069296908432168C86118E02946C4
:10158000206800F0D3FD2068C06940F40060216845
:10159000C8612068C06920F480602168C861206843
:1015A000C069296940EA01202168C86100E000BFE4
:1015B00000BF00BF002084F83C0000BF00BF8BE7E5
:1015C00010B504460CB9012010BD94F83D0028B9AF
:1015D000002084F83C00204600F026F8022084F821
:1015E0003D00211D206800F0BDFC012084F846006C
:1015F00000BF84F83E0001213F20015540200155E5
:101600004120015500BF00BF012084F84200432063
:101610000155442001554520015500BF012084F8A3
:101620003D000020D0E7000008B50168B1F1804F0F
:101630000DD100BF0F49C96941F001010D4AD161C7
:101640001146C96901F00101009100BF11E00A4A89
:10165000016891420DD100BF0649C96941F00201FC
:10166000044AD1611146C96901F00201009100BF2D
:1016700000BF08BD001002400004004070B50446E1
:101680000D4615B994F83E000BE0042D02D13F2021
:10169000005D06E0082D02D14020005D01E0412000
:1016A000005D012801D0012070BD1DB9022084F821
:1016B0003E000EE0042D03D102213F20015508E039
:1016C000082D03D102214020015502E002214120D2
:1016D000015501222946206800F07EFC1949206846
:1016E000884201D1012000E0002028B12068406C30
:1016F00040F40040216848641249206888420BD0B9
:101700002068B0F1804F07D00F492068884203D08D
:101710000E49206888420CD12068806800F00706D6
:10172000062E0CD02068006840F001002168086097
:1017300005E02068006840F0010021680860002092
:10174000B2E70000002C0140000400400008004007
:10175000704770472DE9F84F0446206805682068F7
:10176000C668206847694FF00009CA4605F00F09AE
:10177000B9F1000F0AD105F0200038B106F02000C1
:1017800020B1204600F02BFDBDE8F88FB9F1000F25
:1017900071D007F0010018B906F4907000286AD0E3
:1017A00005F0010030B106F4807018B1206C40F0F3
:1017B0000100206405F0040030B107F0010018B109
:1017C000206C40F00200206405F0020030B107F008
:1017D000010018B1206C40F00400206405F00800FE
:1017E00048B106F0200010B907F0010018B1206CD4
:1017F00040F008002064206C68B305F0200028B198
:1018000006F0200010B1204600F0E9FC2068406995
:10181000C0F3801A206C00F0080010B9BAF1000F74
:1018200022D0204600F0B0FC2068406900F0400063
:10183000B0B12068406920F0400021684861A06B89
:1018400050B15648A16B4863A06BFEF751FF10B131
:10185000A06B416B88470CE02046FFF77AFF08E059
:101860002046FFF776FF04E02046FFF772FF0020D6
:10187000206489E7FFE7206B012878D105F010008C
:10188000002874D006F01000002870D000BF00209F
:10189000009020680068009020684068009000BFB9
:1018A00000BF2068406900F04000C0B3A06B006832
:1018B00040681FFA80F8B8F1000F2FD0A08D404586
:1018C0002CDDA4F82E80A06B806920281FD0206812
:1018D000C06820F480702168C8602068406920F0EA
:1018E0000100216848612068406920F040002168BB
:1018F0004861202084F83E00002020632068C068F2
:1019000020F010002168C860A06BFEF7C5FEA08D16
:10191000E28D801A81B22046FFF71AFF34E7FFE715
:10192000A08DE18D401A1FFA80F8E08DE8B1B8F182
:10193000000F1AD02068C06820F490702168C86039
:101940002068406920F0010021684861202084F867
:101950003E00002020632068C06820F0100021684D
:10196000C86041462046FFF7F3FE0DE7FFE705F0AC
:10197000800030B106F0800018B1204600F043FD31
:1019800002E705F0400030B106F0400018B12046F3
:1019900000F015FCF8E600BFF6E60000752100082F
:1019A00010B504460CB9012010BDA06900B100E0DB
:1019B00000BF94F83D0028B9002084F83C00204680
:1019C00000F028F8242084F83D002068C06820F446
:1019D00000502168C860204600F074FC206800694F
:1019E00020F49040216808612068406920F02A00B6
:1019F000216848612068C06840F400502168C860D0
:101A000000202064202084F83D0084F83E0000205F
:101A1000CAE7000010B586B004460020029003908B
:101A2000049005903849206888422FD100BF37487C
:101A3000806940F48040354988610846806900F437
:101A40008040019000BF00BF00BF0846806940F0A1
:101A5000040088610846806900F00400019000BF1E
:101A600000BF48150290022003900320059002A9B0
:101A70002748FEF795FE4FF4806002900020039007
:101A8000049002A92248FEF78BFE3AE02149206823
:101A9000884236D100BF1D48C06940F480201B49F0
:101AA000C8610846C06900F48020019000BF00BFF3
:101AB00000BF0846806940F00800886108468069D8
:101AC00000F00800019000BF00BF0815029002203E
:101AD00003900320059002A90F48FEF761FE4FF422
:101AE0000060029000200390049002A90A48FEF7CB
:101AF00057FE002211462720FFF76EF82720FFF738
:101B00005BF806B010BD0000003801400010024034
:101B10000008014000480040000C014070B5044638
:101B20000D46164694F83E00202816D105B10EB990
:101B3000012070BD00BF94F83C00012801D10220B3
:101B4000F7E7012084F83C0000BF00202063324604
:101B50002946204600F034FCEBE70220E9E70000CC
:101B600070B5054607492868884204D106480478BC
:101B7000204601F0CBF9012203490448FFF7CEFFCC
:101B800070BD000000480040E8000020F401002083
:101B90002DE9F84F04460E46174699464FF0000AC5
:101BA00094F83D0020285AD106B117B90120BDE8AC
:101BB000F88F00BF94F83C00012801D10220F6E71D
:101BC000012084F83C0000BF00202064212084F81C
:101BD0003D00FEF77BFF8246A784E784A068B0F54E
:101BE000805F04D1206910B90025B04602E0354677
:101BF0004FF0000800BF002084F83C0000BF1BE04D
:101C00005346002280212046CDF8009000F02BFCA6
:101C100008B10320CBE745B9B8F80000C0F30800CD
:101C20002168486008F1020803E0287821684860CC
:101C30006D1CE08C401EE084E08C0028E0D153460F
:101C4000002240212046CDF8009000F00CFC08B1A5
:101C50000320ACE7202084F83D000020A7E7022005
:101C6000A5E7704700BFFEE700B585B000200190F2
:101C700002900390049000BF1D48806940F020004E
:101C80001B4988610846806900F02000009000BF71
:101C900000BF00BF0846806940F004008861084624
:101CA000806900F00400009000BF00BF00BF08463C
:101CB000806940F0080088610846806900F00800EB
:101CC000009000BF00BF00224FF4E0410948FEF73A
:101CD000F7FE4FF4E04001900120029000200390B5
:101CE0000220049001A90348FEF75AFD05B000BD8B
:101CF00000100240000C014000B589B000200790A0
:101D000008901C216846FEF726FA4FF080402349D0
:101D100008604720486000212048816044F61F6128
:101D2000C160002101618161FFF74AFC08B1FEF743
:101D3000B0FC00200790089007A91848FFF720FB87
:101D400008B1FEF7A6FC60200090002001900290F0
:101D50000490002269461148FFF7B4FB08B1FEF772
:101D600098FC042269460D48FFF7ACFB08B1FEF76A
:101D700090FC082269460948FFF7A4FB08B1FEF76A
:101D800088FC0C2269460548FFF79CFB08B1FEF76A
:101D900080FC0248FFF736FB09B000BD200100209F
:101DA00000B589B00020079008901C216846FEF716
:101DB000D2F924482449086047204860002122487D
:101DC000816044F61F61C160002101618161FFF7FC
:101DD000F7FB08B1FEF75DFC00200790089007A90B
:101DE0001948FFF7CDFA08B1FEF753FC60200090C8
:101DF0000020019002900490002269461248FFF7EB
:101E000061FB08B1FEF745FC042269460E48FFF766
:101E100059FB08B1FEF73DFC082269460A48FFF766
:101E200051FB08B1FEF735FC0C2269460648FFF766
:101E300049FB08B1FEF72DFC0348FFF7E3FA09B0B0
:101E400000BD0000000400406801002010B50B48F0
:101E50000B4908604FF4E130486000210848816078
:101E6000C16001610C21416100218161C161FFF705
:101E700097FD08B1FEF70DFC10BD000000380140D1
:101E8000B001002010B50B480B4908604FF4E13059
:101E90004860002108488160C16001610C214161F6
:101EA00000218161C161FFF77BFD08B1FEF7F1FB05
:101EB00010BD000000480040F401002000BFFEE714
:101EC00000BFFEE77047000008B508490968C90867
:101ED0004FF47A72B1FBF2F14143009100BF00BFB1
:101EE00000994A1E00920029F9D108BD180100206E
:101EF000704710B5FEF7F0FD10BD00B58FB028217A
:101F000005A8FEF728F914216846FEF724F90120F8
:101F100005900004069000200790012009900220FF
:101F20000C90C1030D914FF4E0110E9105A8FEF73E
:101F3000DBFF08B1FEF7ADFB0F20009002200190FF
:101F4000002002904FF48060039000200490022152
:101F50006846FEF793FE08B1FEF79BFB0FB000BD8D
:101F60007047000010B50268184B984208D0B0F1D5
:101F7000804F05D0164B984202D0164B984203D1A1
:101F800022F070024B681A43104B984208D0B0F10F
:101F9000804F05D00E4B984202D00E4B984203D191
:101FA00022F44072CB681A4322F080034C6943EA62
:101FB000040202608B68C3620B688362034B984221
:101FC00001D10B6903630123436110BD002C014063
:101FD000000400400008004030B501F01F05012456
:101FE00004FA05F3046A9C430462046A01F01F05C5
:101FF00002FA05F52C43046230BD000030B5056AD5
:1020000025F001050562026A4368846924F07004C2
:1020100024F003040D682C4322F002028D682A4349
:102020000D4DA84206D100BF22F00802CD682A4318
:1020300022F00402084DA84207D123F4807323F450
:1020400000734D692B438D692B43436084614D6858
:102050004563026230BD0000002C014030B5056AC6
:1020600025F010050562026A4368846924F4E0449F
:1020700024F440740D6844EA052422F020028D689F
:1020800042EA05120E4DA84207D100BF22F080029D
:10209000CD6842EA051222F04002094DA84209D15A
:1020A00023F4806323F400634D6943EA85038D695B
:1020B00043EA8503436084614D688563026230BDF5
:1020C000002C014030B5056A25F480750562026A6E
:1020D0004368C46924F0700424F003040D682C43A1
:1020E00022F400728D6842EA05220F4DA84207D102
:1020F00000BF22F40062CD6842EA052222F4806229
:10210000094DA84209D123F4805323F400534D69AB
:1021100043EA05138D6943EA05134360C4614D68C2
:10212000C563026230BD0000002C014030B5056A75
:1021300025F480550562036A4468C26922F4E042CE
:1021400022F440720D6842EA052223F400538D68A0
:1021500043EA0533064DA84204D124F480444D6976
:1021600044EA85144460C2614D680564036230BD71
:10217000002C014070B505466C6A0020E085E084C3
:102180002046FFF7E6FA70BD0168C96821F4907136
:102190000268D1600168496921F00101026851615A
:1021A000016B012905D10168C96821F0100102689D
:1021B000D160202180F83E1000210163704710B5E6
:1021C00004462068C06820F040002168C8602020D4
:1021D00084F83D002046FFF744FD002010BDF8B50F
:1021E000044694F83E00222869D1A068B0F5805FCB
:1021F0000CD1206950B90025A66A20684068C0F358
:1022000008003080A06A801CA06215E0A56A002644
:10221000A068B0F5805F03D0A06828B9206918B91C
:1022200020684068287004E02068406800F07F0063
:102230002870A06A401CA062E08D401E80B2E0853C
:10224000A8BB2068C06820F020002168C860206812
:10225000C06820F480702168C8602068406920F060
:10226000010021684861202084F83E00206B01288D
:102270001ED1002020632068C06820F01000216873
:10228000C8602068006800F0100010280AD100BF64
:10229000002000902068006800902068406800904E
:1022A00000BF00BFA18D2046FFF752FA03E004E013
:1022B0002046FFF755FC0020F8BD0020FCE7022077
:1022C000FAE7000070B504462168096921F440511D
:1022D000E2681143226811612269A16811436269B1
:1022E00041EA02052168C96841F20C629143294321
:1022F0002268D1602168496921F44071A2691143C3
:10230000226851612D4A2168914202D1FEF792FD67
:1023100001E0FEF77FFD00EBC00101EB00116268F8
:102320009200B1FBF2F100EBC00202EB0012636815
:102330009B00B2FBF3F26423B2FBF3F202EBC203A5
:1023400003EB0212A1EB8201322202EB01116422A3
:10235000B1FBF2F101F0F00100EBC00202EB001260
:1023600063689B00B2FBF3F26423B2FBF3F201EB70
:10237000021200EBC00101EB001163689B00B1FB8E
:10238000F3F100EBC00303EB00136668B600B3FB88
:10239000F6F36426B3FBF6F303EBC30606EB031375
:1023A000A1EB8301322303EB01116423B1FBF3F1B1
:1023B00001F00F0111442268916070BD00380140A6
:1023C00010B5034699629A85DA85002018642220A8
:1023D00083F83E0000BF002083F83C0000BF18686F
:1023E000C06840F480701C68E0601868406940F084
:1023F00001001C6860611868C06840F020001C681B
:10240000E060002010BD014691F83D00212828D150
:102410008868B0F5805F0BD1086948B90A6A1088EE
:10242000C0F308000B685860086A801C086205E069
:102430000B6A581C086218780B685860C88C401EDC
:1024400080B2C88458B90868C06820F080000B6862
:10245000D8600868C06840F040000B68D860002071
:1024600070470220FCE72DE9F04104460D4617466F
:102470009846069E21E0701CF8B12EB1FEF726FBAF
:10248000A0EB0800B04218D92068C06820F4D070D2
:102490002168C8602068406920F001002168486117
:1024A000202084F83D0084F83E0000BF002084F81E
:1024B0003C0000BF0320BDE8F08120680068284090
:1024C000A84201D1012000E00020B842D3D0002072
:1024D000F1E7000010B50248FFF73CF910BD00001D
:1024E000F401002000BFFEE70FB4054B10B503A9AF
:1024F000044A029800F0F6F810BC5DF814FB0000E6
:10250000ED2D00081C01002002480068C0F30220E5
:10251000704700000CED00E010B5002804DB0A074E
:10252000130E054A135406E00A07140E034A00F07E
:102530000F031B1FD45410BD00E400E018ED00E0B1
:1025400002E008C8121F08C1002AFAD1704770477C
:10255000002001E001C1121F002AFBD170470000DA
:102560002DE9FF5F82B00021DDE90430020DDDF8C6
:1025700040B0034318D044F61050A2F2FF32424359
:102580001514119801281FD0A5EB0B00401C5FEA21
:10259000000A4FF000064E4FDFF83891B046504623
:1025A00015D5CAF1000413E0119801244AA30128AB
:1025B00001D16FEA0B010298119AC0E90031C0E91C
:1025C000024206B0BDE8F09FCBF10000DFE7044611
:1025D0000021404A491842EB0450CDE9001012E0B6
:1025E000E00707D032463B4640464946FDF765FEC8
:1025F0008046894632463B4610461946FDF75DFE49
:1026000006460F466410002CEAD1DDE90401DDE93D
:102610000023BAF1000F06DAFDF74FFE42464B46A3
:10262000FDF74BFE05E0FDF7BAFE42464B46FDF7CF
:10263000B6FE04460E460022284BFDF71FFF03D8C6
:102640004FF0FF30014607E00022254B204631467F
:10265000FDF78CFDFDF7EFFF102409E0002C0ADBED
:102660000A220023FDF738FF039B30321A55641EFF
:1026700050EA0102F2D1641C039AC4F1110314441C
:10268000119A012A03D0012208430DD10AE0084320
:1026900004D000204FF0110B119072E7A3EB0B0553
:1026A0006D1E0DE05B4504DD4FF0000205F10105F4
:1026B00004E003DA4FF00002A5F10105002AECD096
:1026C00002981199C0E90231C0E9004579E700009C
:1026D000000014400000F03F300000000000F04314
:1026E0000000E03F2DE9FF4F95B09A468846064628
:1026F0000025EEE1252877D100242746F94A01215B
:10270000039400E0044316F8013F203B01FA03F074
:102710001042F7D130782A2811D06FF02F0330788B
:10272000A0F13002092A16D8039A44F0020402EB01
:10273000820203EB42021044761C0390EFE758F844
:10274000042B0392002A03DA504244F4005403900D
:1027500044F00204761C30782E2816D116F8010FAA
:1027600044F004042A280DD06FF02F023078A0F135
:102770003003092B09D807EB870302EB4303C71883
:10278000761CF3E758F8047B761C30786C280FD061
:1027900006DC4C2817D068280DD06A2814D104E034
:1027A000742810D07A280FD10DE044F400140AE008
:1027B00044F4801401E044F440147278824202D15F
:1027C00004F58014761C761C307866280BD013DC58
:1027D000582877D009DC002875D04528F6D046283F
:1027E000F4D047281AD193E118E0632835D0642843
:1027F00079D0652812D18BE1702873D008DC672866
:10280000F1D069286FD06E280DD06F2806D1ACE0CA
:1028100073282CD0752874D0782853D05246179935
:1028200090476D1C54E1C4F30250022809D00328DC
:102830000DD0D8F8001004280DD00D6008F1040860
:1028400046E1D8F80010EA17C1E90052F6E7D8F8D7
:1028500000100D80F2E70D70F0E718F8041B8DF8FA
:10286000001000208DF80100EB46012003E058F82D
:1028700004BB4FF0FF3061074FF0000102D40DE0C0
:1028800009F101018946B9420FDA8145F8DB1BF8ED
:1028900009100029F4D108E009F1010189468142BB
:1028A000FADB1BF809100029F6D103985346A0EB78
:1028B000090721463846179A00F080FA284400EBB1
:1028C000090507E044E008E10DE01BF8010B524662
:1028D00017999047B9F10109F7D253462146384676
:1028E000179AF2E039E00A21C4F302524FF0000BCC
:1028F0000091022A06D058F8040BC117032A09D008
:102900000AE023E008F1070020F00702F2E80201E4
:10291000904605E000B2C117042A01D140B2C117A8
:10292000002906DA0A460021404261EB02012D220D
:1029300002E0220504D52B228DF80420012203E0B9
:10294000E20701D02022F7E7914657E00A2100E094
:1029500010214FF0000B00910BE010214FF0000B05
:1029600044F004040827009103E008204FF0000B16
:102970000090C4F30252022A05D058F8040B00213B
:10298000032A08D008E008F1070020F00702F2E867
:102990000201904603E080B2042A00D1C0B24FF099
:1029A000000922072AD53278702A07D0DDF800C046
:1029B0008CF0100C5CEA0B0C05D00EE040228DF878
:1029C0000420012208E050EA010306D030238DF8EC
:1029D00004308DF8052002229146009B83F0080305
:1029E00053EA0B030AD150EA010201D1620705D56F
:1029F00030228DF804204FF001097F1E3278582ACA
:102A000004D039A20C920CAA02920BE03BA2F9E787
:102A10005B46009AFDF760FD0C9B9B5C029A521E80
:102A20000292137050EA0102F2D1029804A9081A26
:102A300000F1200B600702D524F4803400E0012768
:102A40005F4502DDA7EB0B0000E0002000EB0B016F
:102A5000009003984944401A0390E00306D453467B
:102A60002146179A039800F0A9F90544002706E0CB
:102A700001A85246C05D179990476D1C7F1C4F45B9
:102A8000F6DBE0030CD553462146179A039800F075
:102A900095F9054404E030205246179990476D1C83
:102AA0000099481E00900029F5DC08E00298029980
:102AB00052460078491C0291179990476D1CBBF152
:102AC0000001ABF1010BF1DC5BE100F065F90544BD
:102AD000761C307800287FF40DAE19B02846BDE88A
:102AE000F08F000009280100303132333435363799
:102AF000383961626364656600000000303132334A
:102B000034353637383941424344454600000000E9
:102B1000600700D4062708F1070020F00700F0E85E
:102B20000223804603F0004C5FEA0C0001D097A01E
:102B300009E0200501D596A005E0E00701D095A0A9
:102B400001E0AFF24C001390307823F00043652889
:102B50000CD006DC452809D046281DD047287FD157
:102B60003BE0662818D067287AD136E00021112F83
:102B700001DB112000E0781CCDE9000104A90CA8BC
:102B8000FFF7EEFCDDE90D010C9A4FF0000B07F1A9
:102B90000109109200914EE04FF000400097CDE9FE
:102BA000011004A90CA8FFF7DBFCDDE90D020C9B6A
:102BB0000F994FF0000B91461093009211B9791CB8
:102BC00000EB0109B7EB090003D4C0F1FF3B07F1AB
:102BD0000109A9EB0700019042E0012F00DA01276B
:102BE0000021112F01DD112000E03846CDE9000160
:102BF00004A90CA8FFF7B4FCDDE90D010C9A0091C3
:102C00004FF0000BB946109221070FD4009A4A45A5
:102C100003DA914601E0A9F10109B9F1010F05DDDF
:102C2000109AA9F10101515C3029F4D0B84202DABE
:102C300010F1040F03DA0121CDE9011010E00028A2
:102C400003DC8344A9EB000102E0411C494500DD9F
:102C50008946A0EB0B00401C01904FF00040029011
:102C6000200705D40198484502DB4FF0FF30019062
:102C700000208DF84B0002980DF14B07B0F1004F8A
:102C800025D002200C902B200D90029800280CDA01
:102C9000404202902D200D9007E00A210298FDF796
:102CA00005FC3031029007F8011D0C99481E0C906C
:102CB0000029F2DC02980028EFD1791E0D980870E7
:102CC000307800F0200040F0450007F8020D11A810
:102CD000C01BC01D02901398007800B1012000EBCA
:102CE0000901019801EBE071029801440398401A30
:102CF000401E0390E00306D453462146179A0398DA
:102D000000F05CF805441398007818B15246179902
:102D100090476D1CE00323D553462146179A03982C
:102D200000F04CF805441BE0BBF1000F07DB0098F6
:102D3000584504DD1098179910F80B0001E0179919
:102D400030205246904701980BF1010B401E05F1CF
:102D50000105019004D12E205246179990476D1C11
:102D6000B9F10001A9F10109DEDC05E017F8010B5A
:102D70005246179990476D1C0299481E02900029EF
:102D8000F4DC53462146179A03989EE62D00000076
:102D90002B000000200000002DE9F0410446002532
:102DA0001E461746880404D405E039462020B04763
:102DB0006D1C641EF9D52846BDE8F0812DE9F0416F
:102DC000044600251E469046C80301D5302700E082
:102DD0002027880404D505E041463846B0476D1CDD
:102DE000641EF9D52846BDE8F081000013B50C46F5
:102DF0004FF6FF73012269460248FEF7C9FE0098AC
:102E00001CBD0000B0010020FDF772FEFFF775F851
:102E1000FEF72AFFFEF770FFFEF7C2FFFFF732F85A
:102E2000FFF714F8012215491548FEF777FE00F068
:102E30002DF914A0FFF758FB17480CC817A0FFF78F
:102E400053FB1C480CC81CA0FFF74EFB20480CC8C5
:102E500020A0FFF749FB25480CC825A0FFF744FB3D
:102E600000BF00BF00BF07E000BF00BF43F69820CF
:102E700025490968086400BFF6E70000E800002063
:102E8000F40100207265736574312066696E6973A0
:102E9000686564210D0A000060000020B5D7D7F9ED
:102EA000B6E6BBFAB5C4D6B5CEAAA3BA25660D0A56
:102EB0000000000068000020B9D8BDDA31B6E6BBDA
:102EC000FAB5C4D6B5CEAAA3BA25660D0A0000008D
:102ED00070000020B9D8BDDA32B6E6BBFAB5C4D668
:102EE000B5CEAAA3BA25660D0A000000780000201E
:102EF000B9D8BDDA33B6E6BBFAB5C4D6B5CEAAA307
:102F0000BA25660D0A0000002001002070B50546B4
:102F10004A48007870B92C2D0CD10120474908701F
:102F2000474802780078401C454B1870454820F807
:102F3000125081E04148007801280ED1122D0CD1A9
:102F400002203E4908703E4802780078401C3C4B05
:102F500018703C4820F812506EE03848007802287B
:102F600039D1374802780078401C354B1870354805
:102F700020F8125018460078062801DAFF2D5BD1A0
:102F800003202E4908702E480078001F2D4911F8A3
:102F900010002D4908702A480078C01E294911F8F0
:102FA00010002A49087026480078801E254911F82B
:102FB0001000274908702448017826A0FFF794FAEA
:102FC0002248017827A0FFF78FFA214801782AA02C
:102FD000FFF78AFA30E01948007803281DD1184815
:102FE0000078401E174931F810005B2805D10020F9
:102FF00013490870114908701EE000200F4908703D
:103000000F490870002405E000200E4921F8140043
:10301000601CC4B20A2CF7DB0EE0002007490870E0
:1030200007490870002405E00020064921F8140033
:10303000601CC4B20A2CF7DB70BD0000090100203F
:103040000801002038020020F2000020F0000020DB
:10305000F1000020D1D5C9ABD6D6C0E03A20256317
:1030600020202000D6D0D0C478D7F8B1EAA3BA2562
:103070006420202000000000D6D0D0C479D7F8B159
:10308000EAA3BA25640D0A202020000010B5002113
:103090000B48FEF7F3FA04210948FEF7EFFA08217E
:1030A0000748FEF7EBFA0C210548FEF7E7FA042182
:1030B0000448FEF7E3FA0C210248FEF7DFFA10BDE0
:1030C0006801002020010020000000000000000036
:1030D00001020304060708090000000001020304BE
:1030E00000310008000000202001000040250008F9
:1030F0002032000820010020300500005025000883
:1031000000000000000000000000000000000000BF
:1031100000000000000000000000000000000000AF
:10312000000000000000000000000000000000009F
:10313000000000000000000000000000000000008F
:10314000000000000000000000000000000000007F
:103150000000000000000000000000000080564059
:10316000000000000000000000000000000000005F
:10317000000000000000000000000000000000004F
:10318000000000000000000000000000000000003F
:10319000000000000000000000000000000000002F
:1031A000000000000000000000000000000000001F
:1031B000000000000000000000000000000000000F
:1031C00000000000000000000000000000000000FF
:1031D00000000000000000000000000000000000EF
:1031E0007FBDC282FB2109400000000000000000FA
:1031F00000000000000000000000000000000000CF
:1032000000000000000000000000000000000000BE
:1032100010000000010000000024F4000000000085
:04000005080000ED02
:00000001FF
